{
  "contractName": "MetaCoin",
  "abi": [
    {
      "inputs": [],
      "stateMutability": "nonpayable",
      "type": "constructor"
    },
    {
      "inputs": [
        {
          "internalType": "address",
          "name": "receiver",
          "type": "address"
        },
        {
          "internalType": "uint256",
          "name": "amount",
          "type": "uint256"
        }
      ],
      "name": "sendCoin",
      "outputs": [
        {
          "internalType": "bool",
          "name": "",
          "type": "bool"
        }
      ],
      "stateMutability": "nonpayable",
      "type": "function"
    },
    {
      "inputs": [
        {
          "internalType": "address",
          "name": "addr",
          "type": "address"
        }
      ],
      "name": "getBalance",
      "outputs": [
        {
          "internalType": "uint256",
          "name": "",
          "type": "uint256"
        }
      ],
      "stateMutability": "view",
      "type": "function",
      "constant": true
    }
  ],
  "bytecode": "0x608060405234801561001057600080fd5b506127106000803373ffffffffffffffffffffffffffffffffffffffff1673ffffffffffffffffffffffffffffffffffffffff1681526020019081526020016000208190555061043e806100656000396000f3fe608060405234801561001057600080fd5b50600436106100365760003560e01c806390b98a111461003b578063f8b2cb4f1461006b575b600080fd5b61005560048036038101906100509190610240565b61009b565b604051610062919061029e565b60405180910390f35b61008560048036038101906100809190610213565b6101a1565b60405161009291906102b9565b60405180910390f35b6000816000803373ffffffffffffffffffffffffffffffffffffffff1673ffffffffffffffffffffffffffffffffffffffff1681526020019081526020016000205410156100ec576000905061019b565b816000803373ffffffffffffffffffffffffffffffffffffffff1673ffffffffffffffffffffffffffffffffffffffff168152602001908152602001600020600082825461013a919061032a565b92505081905550816000808573ffffffffffffffffffffffffffffffffffffffff1673ffffffffffffffffffffffffffffffffffffffff168152602001908152602001600020600082825461018f91906102d4565b92505081905550600190505b92915050565b60008060008373ffffffffffffffffffffffffffffffffffffffff1673ffffffffffffffffffffffffffffffffffffffff168152602001908152602001600020549050919050565b6000813590506101f8816103da565b92915050565b60008135905061020d816103f1565b92915050565b600060208284031215610229576102286103d5565b5b6000610237848285016101e9565b91505092915050565b60008060408385031215610257576102566103d5565b5b6000610265858286016101e9565b9250506020610276858286016101fe565b9150509250929050565b61028981610370565b82525050565b6102988161039c565b82525050565b60006020820190506102b36000830184610280565b92915050565b60006020820190506102ce600083018461028f565b92915050565b60006102df8261039c565b91506102ea8361039c565b9250827fffffffffffffffffffffffffffffffffffffffffffffffffffffffffffffffff0382111561031f5761031e6103a6565b5b828201905092915050565b60006103358261039c565b91506103408361039c565b925082821015610353576103526103a6565b5b828203905092915050565b60006103698261037c565b9050919050565b60008115159050919050565b600073ffffffffffffffffffffffffffffffffffffffff82169050919050565b6000819050919050565b7f4e487b7100000000000000000000000000000000000000000000000000000000600052601160045260246000fd5b600080fd5b6103e38161035e565b81146103ee57600080fd5b50565b6103fa8161039c565b811461040557600080fd5b5056fea26469706673582212209cb72bbf1058760cb4ef2e65028a07c9bd0d82d69928975a580aa2d96b48867364736f6c63430008060033",
  "immutableReferences": {},
  "source": "pragma solidity ^0.8;\n\n// This is just a simple example of a coin-like contract.\n// It is not standards compatible and cannot be expected to talk to other\n// coin/token contracts. If you want to create a standards-compliant\n// token, see: https://github.com/ConsenSys/Tokens. Cheers!\n\n// Slightly modified for 0.4.18 Solidity style. Removed the library for simplicity.\n\ncontract MetaCoin {\n\tmapping (address => uint) balances;\n\n\tconstructor()  {\n\t\tbalances[msg.sender] = 10000;\n\t}\n\n\tfunction sendCoin(address receiver, uint amount)\n\t    public\n\t    returns (bool)\n    {\n\t\tif (balances[msg.sender] < amount) {\n            return false;\n        }\n\t\tbalances[msg.sender] -= amount;\n\t\tbalances[receiver] += amount;\n\t\treturn true;\n\t}\n\n\tfunction getBalance(address addr)\n\t    public\n\t    view\n\t    returns (uint)\n    {\n  \t    return balances[addr];\n\t}\n}\n",
  "sourcePath": "/Users/danielguerrero/workspace/blockchain/BCA_token/contracts/MetaCoin.sol",
  "compiler": {
    "name": "solc",
    "version": "0.8.6+commit.11564f7e.Emscripten.clang"
  },
  "schemaVersion": "3.3.4",
  "updatedAt": "2021-08-10T05:48:23.543Z",
  "networkType": "ethereum",
  "devdoc": {
    "kind": "dev",
    "methods": {},
    "version": 1
  },
  "userdoc": {
    "kind": "user",
    "methods": {},
    "version": 1
  }
}